:040000008A152E2C03
:0E000600533083120313FD00FD0B0728080082
:10001400243083120313FC00B530FD00FD0B1028BF
:0A002400FC0B10280000000008008B
:0C002E00000000000000000000000800BE
:0E003A00F201F101F001F801F30100300800BD
:10004800FB14FB1F2E28FF30F300F200F100F00034
:08005800FA0DF20CFF30080064
:100060007B15FB1F3A280130F300F201F101F0018A
:08007000FA0DF20CFF3008004C
:08007800FA1FF213003008002A
:1000800083120313EB1B46288611472886156B1B2A
:100090004B2806114C280615EB1A502886105128BB
:1000A00086146B1A55280610562806143F185A282D
:1000B00006165B280612861617208612EB19622890
:1000C0008611632886156B1967280611682806159E
:1000D000EB186C2886106D2886146B187128061092
:1000E000722806143F1876280616772806128616F8
:1000F000172086123F1C7E280A207F280320080034
:10010000A0017208031D95287108F2007008F10023
:10011000F001A0157208031D95287108F200F10185
:10012000A011201672080319A3282008F302031D4A
:10013000031CA7280310F21BAB28F00DF10DF20DE4
:10014000F30B9B28A7280130FC001D20AE280230AD
:0E015000FC003020AE280430FC003C200800EB
:10015E007C18E528FC18B6287C190429AF28A001C4
:10016E007208031DD6287108F2007008F100780895
:10017E00F000F801A0157208031DD6287108F200D0
:10018E007008F100F001A01120167208031DD62888
:10019E007108F200F101A01572080319F828200861
:1001AE00F302031D031CFC280310F21BE528F80DB7
:1001BE00F00DF10DF20DF30BDC28FC287B1B701CEF
:1001CE000029F81F0029F00A0319F10A0319F20A8F
:1001DE00031D0029F20CF10CF00CF30A031904298B
:1001EE0000290130FC001D2007290230FC003020C0
:1001FE0007290430FC003C2007290830FC0024208D
:04020E0000000800E4
:10021200831203132230FC00F801F901FA01FB01F9
:10022200FC0303193F290310FB0CFA0CF90CF80C20
:10023200F30CF20CF10CF00C031C1129FC03031952
:1002420031297408F80775080318750FF90776083D
:100252000318760FFA0777080318770FFB0715299B
:100262007408F80775080318750FF907760803185C
:0E027200760FFA0777080318770FFB070800CE
:10028000831203133F106A08EB0040203F1408005C
:10029000831203136A08203A031959296A080D3C8E
:1002A000031C572909306A02031C57295929F001F8
:0802B0005B290130F000080099
:1002B800831203137008F100F0010830FC00710884
:1002C800F40C03186B29FC0B6429F10100340310AA
:1002D8007029F40C0318F107F10CF00CFC0B6D29D4
:0202E80008000C
:1002EA00831203137008F8007108F0007208F10015
:1002FA007308F200F301FB01FC019E30F300FA01DE
:10030A00F21F9329F809F009F109F209F80A031909
:10031A00F00A0319F10A0319F20AFA170230FC006B
:04032A00AF200800F8
:10032E0083120313F801F9011030FC00710DF80D62
:10033E00F90D7408F8027508031C750FF9020318FD
:10034E00AF297408F80775080318750FF90703101D
:0A035E00F00DF10DFC0B9D290800C5
:100368008312031373087706031DC72972087606DC
:10037800031DC72971087506031DC729700874066F
:0C03880003190315080003110800080009
:1003940083120313FA017308031D7A147708031DEB
:1003A400FA147A080319162A033A0319E1297A1868
:1003B400DE29F61F142A122AF21F122A142A72089E
:1003C4008039FA00F21376088039F6137A06031995
:1003D400EF297A080319122A142A770873020319D9
:1003E400F629031C0A2A0E2A760872020319FD292B
:1003F400031C0A2A0E2A750871020319042A031C15
:100404000A2A0E2A740870020319162A03180E2ADF
:10041400FA080319142A122AFA080319122A142AA8
:10042400031408000310080003140315080008004F
:1004340083120313FB017308031D77080319712A40
:1004440072087606FA007708F3077E30031C2E2A1A
:10045400F3020318742A312AF302031C772A720860
:10046400F8007108FC007008FD00F817F617031077
:10047400F201F101F0011830A0007D1C4B2A740830
:10048400F00775080318750FF10776080318760F3F
:10049400F207F20CF10CF00CF80CFC0CFD0C031040
:1004A400A00B3F2AF21B5B2AF80DF00DF10DF20DA3
:1004B400F3037B1B701C6D2AF81F6D2AF00A0319C5
:1004C400F10A0319F20A031D6D2AF20CF10CF00C67
:1004D400F30A0319742AFA1FF2130030792A01303F
:1004E4001D20792A02302420792A0430302000008B
:0204F4000800FE
:1004F600831203136A08393C031C882A30306A02C7
:0E050600031C882A0130F000892AF001080049
:100514008312031372087606A000F801F901730828
:100524007702031CAD2A7708FD007308F7007D08E5
:10053400F3007608FD007208F6007D08F2007508E5
:10054400FD007108F5007D08F1007408FD007008D5
:10055400F4007D08F00077080319262B7208FA00CE
:10056400F217F61777087302F7000319E02A083028
:100574007702031CD62AF7007408F9007508F40002
:100584007608F500F60108307702031CD62AF70036
:100594007408F9007508F400F50108307702031CAB
:1005A400D62A7A08F200262B77080319E02A0310CA
:1005B400F60CF50CF40CF90CF70BD92AA01FED2A54
:1005C400F909F409F509F609F90A0319F40A0319F2
:1005D400F50A0319F60A7908F80774080318740F62
:1005E400F00775080318750FF10776080318760FDE
:1005F400F207A01B062B031C162BF20CF10CF00CBB
:10060400F80CF30F162B222B03181A2BF809F009F8
:10061400F109F209F80A0319F00A0319F10A031996
:10062400F20A8030FA061E2B0130FC00AF20282B82
:100634000230FC00AF20282B0430FC008020282B43
:100644000830FC002420282B0030FC0000000800A7
:06065400FB15FF30080059
:10065A0083120313E1010716071C352B3730E1001B
:10066A00871C392B3430E100071D3D2B3130E10066
:10067A00871D412B6130E10007128716071C472BA3
:10068A003830E100871C4B2B3530E100071D4F2B1A
:10069A003230E100871D532B3030E10087120717F3
:1006AA00071C592B3930E100871C5D2B3630E100DD
:1006BA00071D612B3330E100871D652B3D30E100BA
:1006CA0007138717071C6B2B2F30E100871C6F2B32
:1006DA002A30E100071D732B2D30E100871D772B8F
:0C06EA002B30E10087136108F0000800CD
:1006F600013083120313EB0040200230EB00402050
:10070600AF01B001B101B201B701B801B901BA0137
:10071600BB01BC01BD01BE01B301B401803034068A
:10072600F00080307002031D9A2B06303302031846
:10073600A42B3308433E84008001B30A0319B40A8C
:0A074600912BB501B601C2010800B5
:100750007B14FB1FB32BF201FA1FFF30F200F100F4
:0A076000F000FA0DF20CFF30080063
:0C076A00831203138030F6068A22080078
:10077600831203137408003A031DD62B7508003A3A
:10078600031DD62B7608003A031DD62B7708003AB0
:10079600031DD62BFF30F000FF30F1007F30F20052
:1007A600FF30F300712C8312031377080319652CAD
:1007B60073080319682C720876068039FA00F21756
:1007C600F617A0017208F8007108FC007008FD0019
:1007D6007408FD027508031C750FFC027608031CDD
:1007E600760FF802F801FC01FD01031C012C031031
:1007F600F20CF10CF00CF80C0130A0007708F302B3
:10080600031C0B2C7E302007F30703186B2C102CCF
:100816007E302007F307031C6E2C1830FA07FD0DF7
:10082600FC0DF80DF00DF10DF20DA00D7408F0029F
:100836007508031C750FF1027608031C760FF20289
:10084600760DA004201C292C7D14342C7408F00786
:1008560075080318750FF10776080318760AF2076C
:100866007D10FA031F307A05031D122C7B1B7D1C9D
:100876005B2C0310F00DF10DF20DA00D7408F002C3
:100886007508031C750FF1027608031C760FF20239
:10089600760D20040139FD070318FC0A0319F80A2E
:1008A600031D5B2CF80CFC0CFD0CF30A03196B2CD6
:1008B600FA1FF8137808F2007C08F1007D08F000B2
:1008C6000030702C01302A23702C02301D20702C31
:0E08D60004302420702C083030200000080070
:1008E400842C803083120313E100972CC030E10084
:1008F400972C9430E100972CD430E100972C803071
:10090400E100972C831203136108013A0319732C35
:100914006108023A0319782C6108033A03197B2C05
:100924006108043A03197E2C812C6203F0006108EB
:10093400F0077008E1007008EB0040203F10E4016C
:1009440064086307840000080319B02C6408630773
:1009540084000008EA004021E40AA22C3F140800A5
:100964008312031362080319BB2C62088400610814
:100974008000610884000008F0007008E500700839
:10098400EA00482170080319C92CE10ABB2CE301D1
:100994000030E51BFF30F00000307006031DD42C3E
:1009A4002D306506031DDA2C0130E300E10AE72C43
:1009B4000030E51BFF30F00000307006031DE42C0E
:1009C4002B306506031DE72CE10AE501E601E7018A
:1009D400E801E901E401631AF82C610884000008C5
:1009E4002E3A031DF82C6316E10A4C2D610884008D
:1009F4000008EA007B227008031D012D4D2DE3142D
:100A04006508083A0319482D631E092DE403E50A15
:100A14006608F0006708F1006808F2006908F3004E
:100A24000A30F400F501F601F70109217008E60027
:100A34007108E7007208E8007308E900000000008C
:100A44006108840030300002F000F101031CF1035E
:100A54000030F11BFF30F200F3006608F00767086E
:100A64000318670FF10768080318680FF20769088D
:100A74000318690FF3077008E6007108E7007208AD
:100A8400E8007308E900000000004B2D631A4B2DA9
:100A9400E40AE10AED2CE501610884000008653AE6
:100AA40003195B2D610884000008453A03195B2D86
:100AB400B22DE10A6108840000082D3A031D652D5A
:100AC400E315E10A6C2D6108840000082B3A031D2C
:100AD4006C2DE10A610884000008303A031D742D6E
:100AE400E10A6C2D610884000008EA007B2270088A
:100AF4000319AD2D6108840030300002E500E10ADD
:100B0400610884000008EA007B2270080319AD2DF7
:100B14006508F0000A30F4005C216108840030307C
:100B24000002F10071087007E500E10A6108840021
:100B34000008EA007B2270080319AD2D6508F00057
:100B44000A30F4005C216108840030300002F100B6
:100B540071087007E500E31DB22D6508003CE5004F
:100B64006508E4076208003A0319BE2DE31CBE2D94
:100B740062088400610880006608F0006708F100DC
:100B84006808F2006908F30075217008E60071082E
:100B9400E7007208E8007308E900F401F501F601C2
:100BA400F7016608F0006708F1006808F2006908B8
:100BB400F300B4210130031D0030F0007008031964
:100BC400E82DF001F101F201F301ED2E803064060D
:100BD400F0008030003A70020318632E6408003C71
:100BE400E40080306406F00080300A3A7002031C8E
:100BF400172E6608F0006708F1006808F20069081B
:100C0400F300FF30F400E630F5005B30F6005D30B1
:100C1400F7001A227008E6007108E7007208E8007D
:100C24007308E9000A30E402F32D6408003A03195A
:100C3400362E6608F0006708F1006808F2006908BB
:100C4400F300CD30F400CC30F5004C30F6007B30AE
:100C5400F7001A227008E6007108E7007208E8003D
:100C64007308E900E403172E0130F4000030F500A6
:100C74000030F6000130F7006608F0006708F10064
:100C84006808F2006908F300CA2101300318003033
:100C9400F00070080319622E631C592E0130F00015
:100CA4000030F1008030F2000330F300ED2E01300B
:100CB400F0000030F1000030F2000130F300ED2EBE
:100CC400D62E8030003AF00080306406700203189B
:100CD400D62E0A306402031C8B2E6608F0006708C7
:100CE400F1006808F2006908F300F930F4000230FA
:100CF400F5001530F600A030F7001A227008E6005F
:100D04007108E7007208E8007308E9000A30E40299
:100D14006B2E6408003A0319AA2E6608F0006708CF
:100D2400F1006808F2006908F3000030F4000030B4
:100D3400F5002030F6008230F7001A227008E60031
:100D44007108E7007208E8007308E900E4038B2ED9
:100D54006608F4006708F5006808F6006908F700FB
:100D6400FF30F000FF30F1007F30F200FF30F3007D
:100D7400CA21013003180030F00070080319D62E80
:100D8400631CCD2EFF30F000FF30F100FF30F20085
:100D9400FF30F300ED2EFF30F000FF30F1007F3024
:100DA400F200FF30F300ED2E631CE52E00306606E2
:100DB400F00000306706F10080306806F200003071
:100DC4006906F300ED2E6608F0006708F100680874
:080DD400F2006908F3000800B9
:0E0DDC008312031341088A00400882000800B9
:100DEA0083120313FD01F801700803190034740615
:100DFA00FA00FA1BFD09FB01F41F052FF409F40A96
:100E0A00F01F092FF009F00A70087404FA00FA1B9F
:100E1A002D2F7408F802F00D700DF80D7408F807FC
:100E2A00F00D0630FC00700DF80D74087018F80209
:100E3A00701CF807F00DFC0B182F701CF8077B18B4
:100E4A003B2FFD1F0034F009F00AF809F80A0034B4
:100E5A00F41F382FF01B352F7008F800F001262FE9
:100E6A00F001F00A0034F009FB0A0E2FF80A7408A0
:100E7A007802031D262FF801F00AF01F262FFF34EF
:020E8A0008005E
:100E8C0083120313E401053064020318542F640821
:100E9C006307840020308000E40A492F640863074C
:100EAC0084008001E40364086307E5000A30F40061
:100EBC00F5016108F0006208F10097217808F00054
:100ECC007908F1003030F007650884007008800064
:100EDC000A30F400F5016108F0006208F100972176
:100EEC007008E1007108E20000307106031D802FCC
:100EFC0000307006031D832F852FE403592F080043
:100F0C00831203136108F2007208F100F20A6208FE
:100F1C00F000E20A700884000008F00071088400F8
:100F2C007008800071088400000803199E2F8A2F16
:060F3C006108F00008004E
:100F42002D237008D7007008613A031DAA2F7B2356
:100F5200E92F5708003A0319E82F540884000008C3
:100F6200F000840A0008F100840A0008F200840AF2
:100F72000008F30055088400700880007108840A94
:100F820080007208840A80007308840A8000540872
:100F920084008001840A8001840A8001840A80011D
:100FA200560884008001840A8001840A8001840A30
:100FB20080010130EB0040200230EB004020013084
:100FC200E1000130E2002B30E3007224E92FA12F6F
:020FD200080015
:0E0FD400831203135408E100E201B224080066
:100FE2008316031307148714071587150712871230
:060FF2000713871308003D
:1010000083120313DF01E0015408DB005508DC0004
:101010005608DD005708DE005E08FF3A031D1A2857
:101020005D08FF3A031D1A285C08FF3A031D1A28C1
:101030005B08FF3A031D26285808E1002530E2002E
:101040008A1186278A150330F0000F2A0130D90053
:10105000DD1F352880305D06F0007008DD00D90AFC
:10106000580884002D308000D80A0030F0005E0659
:10107000031D442870085D06031D442870085C06A3
:10108000031D44285B08003A031D4F285808E1005F
:101090002930E2008A1186278A15F0010F2A5E089E
:1010A000FF3A031D5D285D08003A031D5D285C08BA
:1010B000003A031D5D285B08003A031D69285808A3
:1010C000E1002130E2008A1186278A155908F000D4
:1010D0000F2A0030F4000030F5000030F6007F30B9
:1010E000F7005B08F0005C08F1005D08F2005E08A4
:1010F000F3008A11CA218A15013003180030F0006C
:1011000070080319A0285B08F0005C08F1005D0876
:10111000F2005E08F3000030F4000030F5002030EB
:10112000F6008230F7008A111A228A157008DB0057
:101130007108DC007208DD007308DE00E003692836
:101140000030F4000030F5002030F6008230F70067
:101150005B08F0005C08F1005D08F2005E08F30037
:101160008A11CA218A150130031C0030F000700872
:101170000319D7285B08F0005C08F1005D08F20055
:101180005E08F300CD30F400CC30F5004C30F600B2
:101190007B30F7008A111A228A157008DB0071086B
:1011A000DC007208DD007308DE00E00AA028FF30D2
:1011B0005B05F800FF305C05F9007F305D05FA0043
:1011C00000305E05FB007808F4007908F5007A0825
:1011D000F6007B08F700F40DF50DF60DF70D741011
:1011E00000305B05F00000305C05F10000305D056B
:1011F000F200FF305E05F3007008DB007108DC00D0
:101200007208DD007308DE0074085B04F0007508E6
:101210005C04F10076085D04F20077085E04F300D8
:101220007008DB007108DC007208DD007308DE0066
:101230007F305E02F0007008DA000130DE007008D6
:10124000F4005B08F0005C08F1005D08F2005E0845
:10125000F300740803193329F00DF10DF20DF30DAD
:101260007010FF3E2A297008DB007108DC0072084C
:10127000DD007308DE005E08303EF0005808840090
:1012800070088000D80A80306006F0008030013A93
:101290007002031C54298030063AF000803060064A
:1012A0007002031C54295B29580884002E308000EA
:1012B000D80A0130DF000630DA005A08003A031974
:1012C000B929DE015B08F0005C08F1005D08F2005E
:1012D0005E08F300F00DF10DF20DF30D7010F00D3E
:1012E000F10DF20DF30D70105B08F0075C080318A8
:1012F0005C0FF1075D0803185D0FF2075E08031825
:101300005E0FF3077008DB007108DC007208DD0077
:101310007308DE005B08F0005C08F1005D08F20075
:101320005E08F300F00DF10DF20DF30D7010700872
:10133000DB007108DC007208DD007308DE005E0867
:10134000303EF0005808840070088000D80A5F081A
:10135000003A031DB729E0036008003A031DB729CE
:10136000580884002E308000D80A0130DF00DA03EC
:101370005D29FF30580784000008303A031DC22958
:10138000D803B929FF305807840000082E3A031DFE
:10139000CA29D8036008003A03190B2A58088400A8
:1013A00065308000D80A80306006F0008030003A56
:1013B00070020318E329580884002D308000D80AF1
:1013C0006008003CE0006008DA008030093AF00074
:1013D0008030600670020318FB290A30F4005A08B6
:1013E000F0008A11F5268A153030F007580884007D
:1013F00070088000D80A0A30F4005A08F0008A11F8
:10140000F5268A157808F0003030F0075808840077
:1014100070088000D80A580884008001F001080094
:1014200083120313FB01730803194D2A7208FA0093
:10143000F2178E30F302F31F502AF309F30A083033
:101440007302031C332AF300F10D7208F100F2015C
:1014500008307302031C332AF300F10DF101730805
:10146000031D03103B2A730803193B2A0310F20CD7
:10147000F10CF30B362A7B1B711C452A031C452AF1
:10148000F10A0319F20AF21B5C2AFA1F5F2AF20919
:10149000F109F10A0319F20A5F2AF201F1015F2A48
:1014A0007B14FB1F622AF201FA1F622AFF30F2004E
:1014B000F100FA0DF20C622A0130FC00642A0030BF
:1014C000FC00642AFF30FC00FC0803196A2A8A1118
:0E14D000A8238A157108F0007208F1000800C8
:1014DE00831203137008F8007108F000F101F20195
:1014EE00F301FB01FC019630F300FA01F01F852A8F
:1014FE00F809F009F80A0319F00AFA177008F10052
:10150E007808F000F801F2018A1180208A1508008F
:10151E0083120313D901DA015408DB005508DC00ED
:10152E0080305506F00080307002031DA02A003076
:10153E0054020318AE2A0130D9000030DA005408E4
:10154E00003CDB005508031C013EDC01DC025B089D
:10155E00E1005C08E2005608E3008A1146278A156E
:10156E000630D7000030D8005808003C031DC12AB1
:10157E005708003C0318DC2A57085607F2000130C2
:10158E005702F0000030031C013E5802F1007008B3
:10159E00560784000008F00072088400700880006E
:1015AE000130D702031CD803BB2A56088400203012
:1015BE00800059085A040319FA2AD701D80157088E
:1015CE00560784000008203A031DF12AD70A031992
:1015DE00D80AE62A0130D702031CD803570856074B
:0815EE0084002D30800008008C
:1015F600831603138612061206108610061186112C
:1016060083128612061286110611861006108A119A
:101616000A208A158A110A208A158A110A208A1533
:101626008614061486168A1117208A1586128A11C0
:101636000A208A1586168A1117208A1586128A119B
:101646000A208A1586168A1117208A1586128A118B
:101656000A208A15061086168A1117208A15861200
:101666008A110A208A1586168A1117208A1586126B
:101676008610861586168A1117208A1586128A11F3
:101686000A208A158611061486168A1117208A15CD
:101696008612061086168A1117208A1586128A1156
:1016A6000A208A1586168A1117208A1586120614AC
:1016B60086168A1117208A1586128A110A208A151B
:1016C600061086168A1117208A15861286150615A3
:1016D6008614061486168A1117208A1586128A1110
:0816E6000A208A153F140800D8
:1016EE00831203135C082B3A031D992B5408F00048
:1016FE005508F1005608F2005708F3005808F40098
:10170E005908F5005A08F6005B08F7008A118A227C
:10171E008A157008DD007108DE007208DF0073089C
:10172E00E000182C5C082D3A031DB92B5808F40064
:10173E005908F5005A08F6005B08F7005408F00047
:10174E005508F1005608F2005708F3008A11B52328
:10175E008A157008DD007108DE007208DF0073085C
:10176E00E000182C5C082A3A031DD92B5408F0000F
:10177E005508F1005608F2005708F3005808F40017
:10178E005908F5005A08F6005B08F7008A111A226C
:10179E008A157008DD007108DE007208DF0073081C
:1017AE00E000182C5C082F3A031DF92B5808F400A2
:1017BE005908F5005A08F6005B08F7005408F000C7
:1017CE005508F1005608F2005708F3008A11BB23A2
:1017DE008A157008DD007108DE007208DF007308DC
:1017EE00E000182C5C08003A031D182C5408F00079
:1017FE005508F1005608F2005708F3005808F40097
:10180E005908F5005A08F6005B08F7008A118A227B
:10181E008A157008DD007108DE007208DF0073089B
:10182E00E0005D08F0005E08F1005F08F20060085D
:04183E00F3000800AB
:101842008A11EE268A150A128000840AC00A031938
:0A185200C10AF003031D212C080059
:10185C00782583120313CF018A11F1278A15FB22F5
:10186C000C30EB008A1140208A158A112D238A1521
:10187C007008CF008A112D238A1570084F06031D9E
:10188C00482C402C30304F02031C512C4F08393C53
:10189C00031C512C562C4F082E3A0319562C632C32
:1018AC004F08EA008A1140218A153508433E84000E
:1018BC004F088000B50A0319B60A4F082B3A0319D2
:1018CC00742C4F082D3A0319742C4F082A3A03191B
:1018DC00742C4F082F3A0319742CB52C4F08EA00BE
:1018EC008A1140218A154F08C200F401F501F60156
:1018FC00F7012F08F0003008F1003108F20032082F
:10190C00F3008A11B4218A150130031D0030F00058
:10191C00700803199E2C4330D4008A11EA278A15CB
:10192C007008AF007108B0007208B1007308B20003
:10193C00B301B40180303406F00080307002031D16
:10194C00A92C063033020318B32C3308433E840011
:10195C008001B30A0319B40AA02CB501B6014F08D3
:10196C003D3A031D4C2D4330D4008A11EA278A15C9
:10197C007008B7007108B8007208B9007308BA0093
:10198C002F08D4003008D5003108D6003208D70013
:10199C007008D8007108D9007208DA007308DB00EF
:1019AC004208DC0077237008D0007108D10072085F
:1019BC00D2007308D3005008BB005108BC00520879
:1019CC00BD005308BE005008F0005108F100520849
:1019DC00F2005308F30010226F227008F400710813
:1019EC00F5007208F6007308F7005008F000510873
:1019FC00F1005208F2005308F3008A11B5238A153E
:101A0C00F401F501F601F7018A11B4218A150130B0
:101A1C00031D0030F000700803192F2D3B08F00057
:101A2C003C08F1003D08F2003E08F30010226F2242
:101A3C007008BB007108BC007208BD007308BE00C2
:101A4C0010227008D4007108D5004930D6008F22BE
:101A5C003A2D3B08D4003C08D5003D08D6003E0882
:101A6C00D7004930D80000200230E1000A30E200F3
:101A7C004930E3008A1172248A153B30D4002F3090
:101A8C00D5003730D6008A11A1278A154F08613A44
:0E1A9C00031D532D8A117B238A153B2C542DDC
:101AF000213084001E3083120313F0005A30C000DE
:081B00000D30C1002124080092
:081AB40049344E34463400347D
:081ABC004E3461344E34003455
:041AC4003034003486
:081AC80061346E347334003404
:081AD00000340034003400343E
:041AD80000340034A2
:041ADC00003400349E
:081AE00000340034003400342E
:081AE800003400340034003426
:02400E004A2F37
:00000001FF
